S01500004770742D496E746572666163652E7372656326
S11300000C942A000C9447000C9447000C9447006D
S11300100C9447000C948E000C9447000C946600DA
S11300200C9447000C9447000C9447000C94550022
S11300300C9447000C9447000C9447000C94470020
S11300400C9447000C9447000C9447000C94470010
S11300500C94470011241FBECFE5D8E0DEBFCDBF0E
S113006010E0A0E6B0E0E4E2F3E002C005900D92F7
S1130070A237B107D9F720E0A2E7B0E001C01D9292
S1130080A437B207E1F70E949F000C9490010C94EE
S1130090000041E00E94CA000895423019F40E9411
S11300A0060108950E94E80008951F920F920FB66A
S11300B00F9211248F93809173008F5F809373004C
S11300C08F910F900FBE0F901F9018951F920F9253
S11300D00FB60F9211242F933F934F935F936F9317
S11300E07F938F939F93AF93BF93EF93FF9342E0DC
S11300F067E085E390E00E944D00FF91EF91BF918E
S1130100AF919F918F917F916F915F914F913F91AB
S11301102F910F900FBE0F901F9018951F920F9262
S11301200FB60F9211248F93809172008F5F80938A
S113013072008F910F900FBE0F901F90189580E65C
S113014090E00E941F0186E690E00E941F018CE669
S113015090E00E941F0162E084E390E00E94490065
S113016067E084E390E00E94490063E081E390E06B
S11301700E94490081E00E94120180917300843F33
S1130180E0F342E062E084E390E00E944D001092CC
S11301907300F3CF442319F0413071F00895FC014A
S11301A0408121E030E002C0220F331F6A95E2F75C
S11301B02095242320830895FC01408121E030E030
S11301C002C0220F331F6A95E2F7242B208308957F
S11301D0442319F0413071F00895FC01408121E07D
S11301E030E002C0220F331F6A95E2F720952423E2
S11301F020830895FC01408121E030E002C0220FF9
S1130200331F6A95E2F7242B20830895FC01408173
S113021021E030E002C0220F331F6A95E2F7242761
S113022020830895882319F0813029F008958FB729
S11302308F778FBF08958FB780688FBF0895FC01B3
S11302408081813011F120F0823009F448C0089592
S113025013BE8281882319F0883041F0089583B752
S113026083BF99B78381892B89BF089583B7886039
S113027083BF29B79381892F90E0880F991F822B20
S113028089BF848181508CBF08951FBC1EBC1DBCD6
S11302901CBC8281882319F0883061F01BC029B707
S11302A09381892F90E0880F991F880F991F822BC3
S11302B089BF10C08EB588608EBD29B7938130E1A7
S11302C0939FC0011124822B89BF8481958101975A
S11302D09BBD8ABD9EB58181892B8EBD089515BCB9
S11302E08281882319F0883061F0089585B585BD31
S11302F029B7938130E4939FC0011124822B89BFD5
S1130300089583B7886083BF29B7938130E8939FAA
S1130310C0011124822B89BF848181508CBF089530
S1070320F894FFCF7B
S113032400040001000001050801093D0204000164
S10503340000C3
S9030000FC
