S02000004C43442D496E746572666163652D776974682D64656C61792E737265634E
S11300000C942A000C943F000C943F000C943F0085
S11300100C943F000C943F000C943F000C943F0060
S11300200C943F000C943F000C943F000C943F0050
S11300300C943F000C943F000C943F000C943F0040
S11300400C943F000C943F000C943F000C943F0030
S11300500C943F0011241FBECFE5D8E0DEBFCDBF16
S113006010E0A0E6B0E0EAEFF3E002C005900D92E4
S1130070AC36B107D9F70E94AA010C94FB010C9489
S11300800000442319F0413071F00895FC014081CF
S113009021E030E002C0220F331F6A95E2F7209579
S11300A0242320830895FC01408121E030E002C034
S11300B0220F331F6A95E2F7242B208308954423EB
S11300C019F0413071F00895FC01408121E030E0E5
S11300D002C0220F331F6A95E2F720952423208360
S11300E00895FC01408121E030E002C0220F331F5B
S11300F06A95E2F7242B20830895CF93C82F40E01C
S113010061E088E390E00E945F0040E062E088E301
S113011090E00E945F008FE99FE00197F1F700C033
S1130120000041E063E088E390E00E945F008FE913
S11301309FE00197F1F700C000008BB38F708BBB79
S11301408BB39C2F907F892B8BBB8FE99FE001970A
S1130150F1F700C0000040E063E088E390E00E9413
S11301605F008FE99FE00197F1F700C0000041E0D4
S113017063E088E390E00E945F008FE99FE00197CD
S1130180F1F700C000008BB38F708BBB8BB3C295AB
S1130190C07FC82BCBBB8FE99FE00197F1F700C06C
S11301A0000040E063E088E390E00E945F008FE994
S11301B09FE00197F1F700C00000CF9108952FEF61
S11301C089EF90E0215080409040E1F700C00000AA
S11301D041E061E087E390E00E94410041E062E099
S11301E087E390E00E94410041E063E087E390E010
S11301F00E9441008AB3806F8ABB82E00E947D0026
S113020088E20E947D008CE00E947D0081E00E94D3
S11302107D000895813039F058F0823031F0833018
S113022031F060E005C0606403C0606101C06065D6
S1130230862F80680E947D000895CF93DF93C82F96
S113024041E061E088E390E00E945F0040E062E00A
S113025088E390E00E945F008FE99FE00197F1F747
S113026000C0000041E063E088E390E00E945F008A
S11302708FE99FE00197F1F700C00000DFE0DBBBEE
S11302808BB39C2F907F892B8BBB8FE99FE00197C9
S1130290F1F700C0000040E063E088E390E00E94D2
S11302A05F008FE99FE00197F1F700C0000041E093
S11302B063E088E390E00E945F008FE99FE001978C
S11302C0F1F700C00000DBBB8BB3C295C07FC82B25
S11302D0CBBB8FE99FE00197F1F700C0000040E03D
S11302E063E088E390E00E945F008FE99FE001975C
S11302F0F1F700C00000DF91CF910895CF93DF9311
S1130300EC0103C00E941D01219688818111FACF5E
S1130310DF91CF910895CF93DF93CDB7DEB7619787
S11303200FB6F894DEBF0FBECDBFDC01CB014AE0AF
S1130330BE016F5F7F4F0E94C601CE0101960E94ED
S11303407E0161960FB6F894DEBF0FBECDBFDF917C
S1130350CF9108950E94DF0088E10E947D0065E04E
S113036080E00E940A0180E690E00E947E0160E045
S113037081E00E940A0186E690E00E947E0165E623
S113038070E080E090E00E948B01E6CFBB274A300A
S113039031F4992322F4BDE2909581959F4F0C94FA
S11303A0D201BB27FB015527AA27880F991FAA1F33
S11303B0A41710F0A41B83955051B9F7A05DAA337C
S11303C008F0A95DA193009779F7B111B193119247
S11303D0CB010C94EB01DC01FC01672F71917723B5
S11303E0E1F7329704C07C916D9370836291AE17EC
S10D03F0BF07C8F30895F894FFCF87
S10F03FA336174656600576F726C640018
S9030000FC
