:100000000C942A000C943F000C943F000C943F0089
:100010000C943F000C943F000C943F000C943F0064
:100020000C943F000C943F000C943F000C943F0054
:100030000C943F000C943F000C943F000C943F0044
:100040000C943F000C943F000C943F000C943F0034
:100050000C943F0011241FBECFE5D8E0DEBFCDBF1A
:1000600010E0A0E6B0E0EAEFF3E002C005900D92E8
:10007000AC36B107D9F70E946E010C94FB010C94C9
:100080000000CF93C82F40E061E088E390E00E9439
:10009000A80140E062E088E390E00E94A8018FE9B7
:1000A0009FE00197F1F700C0000041E063E088E3C2
:1000B00090E00E94A8018FE99FE00197F1F700C04E
:1000C00000008BB38F708BBB8BB39C2F907F892BE1
:1000D0008BBB8FE99FE00197F1F700C0000040E083
:1000E00063E088E390E00E94A8018FE99FE0019718
:1000F000F1F700C0000041E063E088E390E00E9477
:10010000A8018FE99FE00197F1F700C000008BB3D1
:100110008F708BBB8BB3C295C07FC82BCBBB8FE9D5
:100120009FE00197F1F700C0000040E063E088E342
:1001300090E00E94A8018FE99FE00197F1F700C0CD
:100140000000CF9108952FEF89EF90E0215080407B
:100150009040E1F700C0000041E061E087E390E0FB
:100160000E948A0141E062E087E390E00E948A01F8
:1001700041E063E087E390E00E948A018AB3806FE8
:100180008ABB82E00E94410088E20E9441008CE02C
:100190000E94410081E00E9441000895813039F0C1
:1001A00058F0823031F0833031F060E005C0606497
:1001B00003C0606101C06065862F80680E944100B5
:1001C0000895CF93DF93C82F41E061E088E390E08A
:1001D0000E94A80140E062E088E390E00E94A8014C
:1001E0008FE99FE00197F1F700C0000041E063E074
:1001F00088E390E00E94A8018FE99FE00197F1F762
:1002000000C00000DFE0DBBB8BB39C2F907F892B0D
:100210008BBB8FE99FE00197F1F700C0000040E041
:1002200063E088E390E00E94A8018FE99FE00197D6
:10023000F1F700C0000041E063E088E390E00E9435
:10024000A8018FE99FE00197F1F700C00000DBBB38
:100250008BB3C295C07FC82BCBBB8FE99FE00197C2
:10026000F1F700C0000040E063E088E390E00E9406
:10027000A8018FE99FE00197F1F700C00000DF912E
:10028000CF910895CF93DF93EC0103C00E94E1006A
:10029000219688818111FACFDF91CF910895CF9374
:1002A000DF93CDB7DEB761970FB6F894DEBF0FBE10
:1002B000CDBFDC01CB014AE0BE016F5F7F4F0E94E2
:1002C000C601CE0101960E94420161960FB6F894D4
:1002D000DEBF0FBECDBFDF91CF9108950E94A30076
:1002E00088E10E94410065E080E00E94CE0080E647
:1002F00090E00E94420160E081E00E94CE0086E62C
:1003000090E00E94420165E670E080E090E00E948B
:100310004F01E6CF442319F0413071F00895FC01FC
:10032000408121E030E002C0220F331F6A95E2F7DE
:100330002095242320830895FC01408121E030E0B2
:1003400002C0220F331F6A95E2F7242B2083089501
:10035000442319F0413071F00895FC01408121E0FF
:1003600030E002C0220F331F6A95E2F72095242364
:1003700020830895FC01408121E030E002C0220F7B
:10038000331F6A95E2F7242B20830895BB274A3058
:1003900031F4992322F4BDE2909581959F4F0C94FE
:1003A000D201BB27FB015527AA27880F991FAA1F37
:1003B000A41710F0A41B83955051B9F7A05DAA3380
:1003C00008F0A95DA193009779F7B111B19311924B
:1003D000CB010C94EB01DC01FC01672F71917723B9
:1003E000E1F7329704C07C916D9370836291AE17F0
:0A03F000BF07C8F30895F894FFCF8B
:0C03FA00336174656600576F726C64001C
:00000001FF
