S017000052656C61795F496E746572666163652E7372656320
S11300000C942A000C943C000C943C000C943C008E
S11300100C943C000C943C000C943C000C943C006C
S11300200C943C000C943C000C943C000C943C005C
S11300300C943C000C943C000C943C000C943C004C
S11300400C943C000C943C000C943C000C943C003C
S11300500C943C0011241FBECFE5D8E0DEBFCDBF19
S113006020E0A0E6B0E001C01D92A136B207E1F79E
S11300700E9474000C94E8000C94000041E062E0DB
S11300808AE390E00E9497000895482F62E08BE392
S113009090E00E94CA00089540E00E9497000895ED
S11300A01F93CF93DF93EC01162F0E94B50090911C
S11300B06000891791F02FEF89EF90E02150804084
S11300C09040E1F700C00000612FCE010E94B5000E
S11300D080936000813019F403C080E001C080E0A7
S11300E0DF91CF911F91089560E087E390E00E9433
S11300F04C0066E081E390E00E944C000E943E00C8
S113010060E086E390E00E945000C82F66E080E340
S113011090E00E945000C13021F481E00E9445002B
S1130120EFCF813069F780E00E944500E9CF442396
S113013019F0413071F00895FC01408121E030E074
S113014002C0220F331F6A95E2F7209524232083EF
S11301500895FC01408121E030E002C0220F331FEA
S11301606A95E2F7242B20830895FC01408181E005
S113017090E09C01062E02C0220F331F0A94E2F77E
S1130180842F90E08223932302C0969587956A95E5
S1130190E2F70895442319F0413071F00895FC0109
S11301A0408121E030E002C0220F331F6A95E2F75C
S11301B02095242320830895FC01408121E030E030
S11301C002C0220F331F6A95E2F7242B208308957F
S10701D0F894FFCFCD
S9030000FC
