S018000042757A7A65725F496E746572666163652E737265639A
S11300000C942A000C943C000C943C000C943C008E
S11300100C943C000C943C000C943C000C943C006C
S11300200C943C000C943C000C943C000C943C005C
S11300300C943C000C943C000C943C000C943C004C
S11300400C943C000C943C000C943C000C943C003C
S11300500C943C0011241FBECFE5D8E0DEBFCDBF19
S113006020E0A0E6B0E001C01D92A136B207E1F79E
S11300700E949D000C94E8000C94000041E063E0B1
S11300808AE390E00E944C000895482F63E08BE3DC
S113009090E00E947F000895442319F0413071F0EC
S11300A00895FC01408121E030E002C0220F331F9B
S11300B06A95E2F72095242320830895FC0140816A
S11300C021E030E002C0220F331F6A95E2F7242BAF
S11300D020830895FC01408181E090E09C01062E7C
S11300E002C0220F331F0A94E2F7842F90E0822388
S11300F0932302C0969587956A95E2F70895442361
S113010019F0413071F00895FC01408121E030E0A4
S113011002C0220F331F6A95E2F72095242320831F
S11301200895FC01408121E030E002C0220F331F1A
S11301306A95E2F7242B2083089560E087E390E03A
S11301400E94C00066E081E390E00E94C0000E942B
S11301503E0060E086E390E00E94C400C82F66E0A1
S113016080E390E00E94C400C13021F481E00E9449
S11301704500EFCF813069F780E00E944500E9CF68
S113018040E00E944C0008951F93CF93DF93EC014D
S1130190162F0E946A0090916000891791F02FEF4A
S11301A089EF90E0215080409040E1F700C00000CA
S11301B0612FCE010E946A0080936000813019F49F
S11301C003C080E001C080E0DF91CF911F910895CA
S10701D0F894FFCFCD
S9030000FC
