:100000000C942A000C9447000C9447000C94470071
:100010000C9447000C9447000C9447000C94470044
:100020000C9447000C9447000C9447000C94470034
:100030000C9447000C9447000C9447000C94470024
:100040000C9447000C9447000C9447000C94470014
:100050000C94470011241FBECFE5D8E0DEBFCDBF12
:1000600010E0A0E6B0E0E2E5FAE002C005900D92F3
:10007000AE37B107D9F720E0AEE7B0E001C01D927E
:10008000AF37B207E1F70E940E020C9427050C94DB
:100090000000CF93C82F40E061E088E390E00E9429
:1000A000380340E062E088E390E00E9438038FE983
:1000B0009FE00197F1F700C0000041E063E088E3B2
:1000C00090E00E9438038FE99FE00197F1F700C0AC
:1000D00000008BB38F708BBB8BB39C2F907F892BD1
:1000E0008BBB8FE99FE00197F1F700C0000040E073
:1000F00063E088E390E00E9438038FE99FE0019776
:10010000F1F700C0000041E063E088E390E00E9466
:1001100038038FE99FE00197F1F700C000008BB32F
:100120008F708BBB8BB3C295C07FC82BCBBB8FE9C5
:100130009FE00197F1F700C0000040E063E088E332
:1001400090E00E9438038FE99FE00197F1F700C02B
:100150000000CF9108952FEF89EF90E0215080406B
:100160009040E1F700C0000041E061E087E390E0EB
:100170000E94050341E062E087E390E00E940503EE
:1001800041E063E087E390E00E9405038AB3806F5B
:100190008ABB82E00E94490088E20E9449008CE00C
:1001A0000E94490081E00E944900089581E00E9478
:1001B00049000895CF93DF93C82F41E061E088E3C1
:1001C00090E00E94380340E062E088E390E00E9403
:1001D00038038FE99FE00197F1F700C0000041E08C
:1001E00063E088E390E00E9438038FE99FE0019785
:1001F000F1F700C00000DFE0DBBB8BB39C2F907FEA
:10020000892B8BBB8FE99FE00197F1F700C00000BD
:1002100040E063E088E390E00E9438038FE99FE0CC
:100220000197F1F700C0000041E063E088E390E04F
:100230000E9438038FE99FE00197F1F700C00000AA
:10024000DBBB8BB3C295C07FC82BCBBB8FE99FE0D4
:100250000197F1F700C0000040E063E088E390E020
:100260000E9438038FE99FE00197F1F700C000007A
:10027000DF91CF910895CF93DF93EC0103C00E94EB
:10028000DA00219688818111FACFDF91CF9108950C
:10029000CF93DF93CDB7DEB761970FB6F894DEBF8B
:1002A0000FBECDBFDC01CB014AE0BE016F5F7F4FC7
:1002B0000E94F204CE0101960E943B0161960FB6A6
:1002C000F894DEBF0FBECDBFDF91CF9108958CE6CD
:1002D00090E00E9478020895CF93DF9300D0CDB7CD
:1002E000DEB71A82198280916C000E94B702BE01AB
:1002F0006F5F7F4F8CE690E00E94C30289819A81F4
:100300000F900F90DF91CF91089580916C000E9423
:10031000BD02089540E00E94050308951F93CF9306
:10032000DF93EC01162F0E94230390917E00891722
:1003300091F02FEF89EF90E0215080409040E1F75D
:1003400000C00000612FCE010E94230380937E0035
:10035000813019F403C080E001C080E0DF91CF91CB
:100360001F91089585E790E00E9478020895CF924A
:10037000DF92EF92FF920F931F93CF93DF9300D002
:10038000CDB7DEB71A82198280E00E94B702BE01A3
:100390006F5F7F4F85E790E00E94C30280917900F4
:1003A000882341F0813019F000E010E005C00FEF24
:1003B00013E002C00FEF10E069817A8180E090E0E5
:1003C0000E94F70320E030E040EA50E40E948504F8
:1003D00020E030E048EC52E40E9485046B017C018F
:1003E000B80180E090E00E94F7039B01AC01C701D7
:1003F000B6010E9456030E94C803862F0F900F90EB
:10040000DF91CF911F910F91FF90EF90DF90CF90F0
:100410000895809175000E94BD0208950E946701B1
:100420000E94B2010E94AB0060E087E390E00E946E
:100430008A0166E081E390E00E948A0160E086E341
:1004400090E00E948E01882319F10E94B701C82F05
:100450000E94D6006C2F70E080E090E00E9448017E
:1004600080E690E00E943B012FEF89E698E1215061
:1004700080409040E1F700C0000066E080E390E03B
:100480000E948E01882309F30E9409020E94D6006F
:1004900066E080E390E00E948E01882379F20E945A
:1004A0006C01EC010E94D600BE0180E090E00E9449
:1004B000480188E690E00E943B012FEF89E698E131
:1004C000215080409040E1F700C0000060E086E3EA
:1004D00090E00E948E01882311F30E9485010E9402
:1004E000D600ACCF349902C081E0089582E008952F
:1004F000FC0117B816B880B78F7180BF8081811159
:1005000032C08281813021F038F0823059F011C040
:1005100086B18F7D86B90DC086B1806286B980B7FD
:1005200080BF07C086B1806286B990B78581892B6C
:1005300080BF97B18181892B87B98481882319F085
:10054000813029F008C087B1806287B904C097B1B3
:100550008681892B87B996B18381892B86B996B11B
:100560008781892B86B986B1806886B90895811103
:1005700003C086B1806486B90895811103C086B135
:100580008F7B86B908950F931F93CF93DF93FC0160
:100590002081211132C08B01EC0187B1807E87B9A7
:1005A00097B18085892B87B90E9472028130E1F36F
:1005B0008C81882319F0813039F01FC085B190E01B
:1005C000F8019183808319C08E81882389F080325D
:1005D000A1F484B195B10024880F991F001C880FE5
:1005E000991F001C892F902DF8019183808305C0ED
:1005F00084B195B1F8019183808386B1806186B919
:10060000DF91CF911F910F910895442319F041304C
:1006100071F00895FC01408121E030E002C0220F1A
:10062000331F6A95E2F72095242320830895FC0167
:10063000408121E030E002C0220F331F6A95E2F7CB
:10064000242B20830895FC01408181E090E09C01EF
:10065000062E02C0220F331F0A94E2F7842F90E087
:100660008223932302C0969587956A95E2F70895B1
:10067000442319F0413071F00895FC01408121E0DC
:1006800030E002C0220F331F6A95E2F72095242341
:1006900020830895FC01408121E030E002C0220F58
:1006A000331F6A95E2F7242B208308950E946A0382
:1006B0000C944B040E94440458F00E943D0440F006
:1006C00029F45F3F29F00C94340451110C947F04F9
:1006D0000C943A040E945C0468F39923B1F3552307
:1006E00091F3951B550BBB27AA2762177307840745
:1006F00038F09F5F5F4F220F331F441FAA1FA9F3DB
:1007000035D00E2E3AF0E0E832D091505040E695C8
:10071000001CCAF72BD0FE2F29D0660F771F881F29
:10072000BB1F261737074807AB07B0E809F0BB0B1C
:10073000802DBF01FF2793585F4F3AF09E3F510530
:1007400078F00C9434040C947F045F3FE4F3983EFB
:10075000D4F3869577956795B795F7959F5FC9F719
:10076000880F911D9695879597F90895E1E0660F9A
:10077000771F881FBB1F621773078407BA0720F013
:10078000621B730B840BBA0BEE1F88F7E09508957C
:100790000E94640488F09F5798F0B92F9927B751A9
:1007A000B0F0E1F0660F771F881F991F1AF0BA9515
:1007B000C9F714C0B13091F00E947E04B1E00895F1
:1007C0000C947E04672F782F8827B85F39F0B93FE3
:1007D000CCF3869577956795B395D9F73EF49095C8
:1007E0008095709561957F4F8F4F9F4F0895E89446
:1007F00009C097FB3EF490958095709561957F4F69
:100800008F4F9F4F9923A9F0F92F96E9BB27939516
:10081000F695879577956795B795F111F8CFFAF426
:10082000BB0F11F460FF1BC06F5F7F4F8F4F9F4F57
:1008300016C0882311F096E911C0772321F09EE8B5
:10084000872F762F05C0662371F096E8862F70E01B
:1008500060E02AF09A95660F771F881FDAF7880FF5
:100860009695879597F9089597F99F6780E870E0C6
:1008700060E008959FEF80EC089500240A94161616
:10088000170618060906089500240A94121613067E
:10089000140605060895092E0394000C11F488230C
:1008A00052F0BB0F40F4BF2B11F460FF04C06F5F28
:1008B0007F4F8F4F9F4F089557FD9058440F551FFE
:1008C00059F05F3F71F04795880F97FB991F61F0D2
:1008D0009F3F79F087950895121613061406551F49
:1008E000F2CF4695F1DF08C0161617061806991FB5
:1008F000F1CF86957105610508940895E894BB27AA
:1009000066277727CB0197F908950E9498040C94E5
:100910004B040E943D0438F00E94440420F09523CB
:1009200011F00C9434040C943A0411240C947F04B8
:100930000E945C0470F3959FC1F3950F50E0551F22
:10094000629FF001729FBB27F00DB11D639FAA2724
:10095000F00DB11DAA1F649F6627B00DA11D661F73
:10096000829F2227B00DA11D621F739FB00DA11D94
:10097000621F839FA00D611D221F749F3327A00D4E
:10098000611D231F849F600D211D822F762F6A2FEA
:1009900011249F5750409AF0F1F088234AF0EE0F4F
:1009A000FF1FBB1F661F771F881F91505040A9F77C
:1009B0009E3F510580F00C9434040C947F045F3FFB
:1009C000E4F3983ED4F3869577956795B795F795B8
:1009D000E7959F5FC1F7FE2B880F911D9695879530
:1009E00097F90895BB274A3031F4992322F4BDE2E8
:1009F000909581959F4F0C94FE04BB27FB015527D2
:100A0000AA27880F991FAA1FA41710F0A41B83956B
:100A10005051B9F7A05DAA3308F0A95DA1930097E2
:100A200079F7B111B1931192CB010C941705DC0148
:100A3000FC01672F71917723E1F7329704C07C9115
:100A40006D9370836291AE17BF07C8F30895F89451
:020A5000FFCFD6
:100A520043656C73697573004F686D000040010750
:0E0A62000100200001004001070100200000FB
:00000001FF
