:100000000C942A000C943C000C943C000C943C0092
:100010000C943C000C943C000C943C000C943C0070
:100020000C943C000C943C000C943C000C943C0060
:100030000C943C000C943C000C943C000C943C0050
:100040000C943C000C943C000C943C000C943C0040
:100050000C943C0011241FBECFE5D8E0DEBFCDBF1D
:1000600020E0A0E6B0E001C01D92A136B207E1F7A2
:100070000E9472000C94E7000C94000041E00E9482
:100080008A000895423019F40E94DB0008950E940E
:10009000BD00089540E00E948A0008951F93CF9309
:1000A000DF93EC01162F0E94A80090916000891741
:1000B00091F02FEF89EF90E0215080409040E1F7E0
:1000C00000C00000612FCE010E94A8008093600054
:1000D000813019F403C080E001C080E0DF91CF914E
:1000E0001F91089562E084E390E00E943E0060E08A
:1000F00087E390E00E944A0060E086E390E00E947F
:100100004E008130C9F742E062E085E390E00E9452
:100110004200F2CF442319F0413071F00895FC0100
:10012000408121E030E002C0220F331F6A95E2F7E0
:100130002095242320830895FC01408121E030E0B4
:1001400002C0220F331F6A95E2F7242B2083089503
:10015000FC01408181E090E09C01062E02C0220F4C
:10016000331F0A94E2F7842F90E08223932302C086
:10017000969587956A95E2F70895442319F04130E2
:1001800071F00895FC01408121E030E002C0220FAF
:10019000331F6A95E2F72095242320830895FC01FC
:1001A000408121E030E002C0220F331F6A95E2F760
:1001B000242B20830895FC01408121E030E002C01F
:1001C000220F331F6A95E2F7242720830895F894BD
:0201D000FFCF5F
:00000001FF
