:100000000C942A000C9401010C943C000C943C00CC
:100010000C943C000C943C000C943C000C943C0070
:100020000C943C000C943C000C943C000C943C0060
:100030000C943C000C943C000C943C000C943C0050
:100040000C943C000C943C000C943C000C943C0040
:100050000C943C0011241FBECFE5D8E0DEBFCDBF1D
:1000600020E0A0E6B0E001C01D92A036B207E1F7A3
:100070000E9429010C943F010C940000442319F0C4
:10008000413071F00895FC01408121E030E002C070
:10009000220F331F6A95E2F72095242320830895C9
:1000A000FC01408121E030E002C0220F331F6A953D
:1000B000E2F7242B20830895442319F0413071F096
:1000C0000895FC01408121E030E002C0220F331F7F
:1000D0006A95E2F72095242320830895FC0140814E
:1000E00021E030E002C0220F331F6A95E2F7242B93
:1000F00020830895FC01408121E030E002C0220FFE
:10010000331F6A95E2F7242720830895813059F13F
:1001100020F0823009F44DC00895613099F0C8F0A4
:10012000623049F06330D9F485B78E7F85BF85B7DB
:100130008D7F85BF14C085B7816085BF85B78D7FF2
:1001400085BF0DC085B78E7F85BF85B7826085BFAF
:1001500006C085B7816085BF85B7826085BF8BB7D4
:1001600080648BBF0895613099F0C8F0623049F027
:100170006330D9F485B78B7F85BF85B7877F85BF0F
:1001800014C085B7846085BF85B7877F85BF0DC0E4
:1001900085B78B7F85BF85B7886085BF06C085B76B
:1001A000846085BF85B7886085BF8BB780688BBF4B
:1001B0000895662331F0613039F484B78F7B84BFB2
:1001C00003C084B7806484BF8BB780628BBF0895FF
:1001D000882319F0813029F008958FB78F778FBF6A
:1001E00008958FB780688FBF089541E00E943E0058
:1001F0000895423019F40E947A0008950E945C002C
:1002000008951F920F920FB60F9211242F933F93D0
:100210004F935F936F937F938F939F93AF93BF930E
:10022000EF93FF9342E062E085E390E00E94F900E3
:10023000FF91EF91BF91AF919F918F917F916F91BE
:100240005F914F913F912F910F900FBE0F901F9094
:10025000189560E080E00E94860081E00E94E8003E
:1002600062E081E390E00E943B0162E084E390E081
:100270000E94F500FFCF40E00E943E000895F894F0
:02028000FFCFAE
:00000001FF
