:100000000C942A000C944E000C943C000C943C0080
:100010000C943C000C943C000C943C000C943C0070
:100020000C943C000C943C000C943C000C943C0060
:100030000C943C000C943C000C943C000C943C0050
:100040000C943C000C943C000C943C000C943C0040
:100050000C943C0011241FBECFE5D8E0DEBFCDBF1D
:1000600020E0A0E6B0E001C01D92A036B207E1F7A3
:100070000E9476000C9442010C94000041E00E9422
:1000800088000895423019F40E94C40008950E9427
:10009000A600089540E00E94880008951F920F92E4
:1000A0000FB60F9211242F933F934F935F936F934B
:1000B0007F938F939F93AF93BF93EF93FF9342E010
:1000C00062E085E390E00E944200FF91EF91BF91D2
:1000D000AF919F918F917F916F915F914F913F91E0
:1000E0002F910F900FBE0F901F90189560E080E049
:1000F0000E94D00081E00E94350162E081E390E03F
:100100000E944A0062E084E390E00E943E00FFCF3C
:10011000442319F0413071F00895FC01408121E041
:1001200030E002C0220F331F6A95E2F720952423A6
:1001300020830895FC01408121E030E002C0220FBD
:10014000331F6A95E2F7242B20830895442319F086
:10015000413071F00895FC01408121E030E002C09F
:10016000220F331F6A95E2F72095242320830895F8
:10017000FC01408121E030E002C0220F331F6A956C
:10018000E2F7242B20830895FC01408121E030E038
:1001900002C0220F331F6A95E2F7242720830895B7
:1001A000813061F120F0823009F44FC00895613050
:1001B00069F028F06230C1F0633079F01BC085B778
:1001C000816085BF85B7826085BF14C085B78E7F8B
:1001D00085BF85B7826085BF0DC085B78E7F85BF1F
:1001E00085B78D7F85BF06C085B7816085BF85B720
:1001F0008D7F85BF8BB780648BBF0895613069F0B8
:1002000028F06230C1F0633079F01BC085B784609C
:1002100085BF85B7886085BF14C085B78B7F85BFD4
:1002200085B7886085BF0DC085B78B7F85BF85B7D3
:10023000877F85BF06C085B7846085BF85B7877F08
:1002400085BF8BB780688BBF0895662319F0613036
:1002500029F007C084B7806484BF03C084B78F7B54
:1002600084BF8BB780628BBF0895882319F08130DB
:1002700029F008958FB78F778FBF08958FB7806863
:080280008FBF0895F894FFCF31
:00000001FF
