S01E0000537465707065724D6F746F725F496E746572666163652E7372656322
S11300000C942A000C9447000C9447000C9447006D
S11300100C9447000C9447000C9447000C94470040
S11300200C9447000C9447000C9447000C94470030
S11300300C9447000C9447000C9447000C94470020
S11300400C9447000C9447000C9447000C94470010
S11300500C94470011241FBECFE5D8E0DEBFCDBF0E
S113006010E0A0E6B0E0E0E2F2E002C005900D92FC
S1130070A436B107D9F720E0A4E6B0E001C01D9290
S1130080A536B207E1F70E94BA000C940E010C9455
S1130090000041E064E08AE390E00E94DB0041E07C
S11300A065E08AE390E00E94DB0041E066E08AE3D9
S11300B090E00E94DB0041E067E08AE390E00E9468
S11300C0DB00089580E012C09BB39F709BBB2BB3F1
S11300D0E82FF0E0E05AFF4F9081922B9BBBEFE1B9
S11300E0FEE43197F1F700C000008F5F843060F3C5
S11300F0089583E014C09BB39F709BBB2BB3E82F80
S1130100082E000CFF0BE05AFF4F9081922B9BBBF3
S1130110EFE1FEE43197F1F700C00000815088233D
S113012054F7089540E00E94DB0008951F93CF9395
S1130130DF93EC01162F0E94F90090916400891757
S113014091F02FEF89EF90E0215080409040E1F74B
S113015000C00000612FCE010E94F900809364006A
S1130160813019F403C080E001C080E0DF91CF91B9
S11301701F9108950E94490066E087E390E00E9481
S1130180920062E081E390E00E94920002C00E942B
S1130190790066E080E390E00E949600813019F4D3
S11301A0F6CF0E94620062E080E390E00E94960035
S11301B08130B9F3EECF442319F0413071F0089542
S11301C0FC01408121E030E002C0220F331F6A9518
S11301D0E2F72095242320830895FC01408121E047
S11301E030E002C0220F331F6A95E2F7242B2083EC
S11301F00895FC01408181E090E09C01062E02C03C
S1130200220F331F0A94E2F7842F90E08223932372
S113021002C0969587956A95E2F70895F894FFCF02
S107022010204080E6
S9030000FC
